16:50:25.277029 IP6 2601:602:8700:26a1:8095:f581:9c73:5c53.63398 > pf-in-xbc.1e100.net.5228: Flags [.], ack 709671980, win 4096, length 0
	0x0000:  7654 7d81 1481 98fe 9447 ba30 86dd 600b
	0x0010:  3327 0014 0640 2601 0602 8700 26a1 8095
	0x0020:  f581 9c73 5c53 2607 f8b0 400e 0c00 0000
	0x0030:  0000 0000 00bc f7a6 146c 2eaa 69ba 2a4c
	0x0040:  bc2c 5010 1000 60df 0000
16:50:25.332340 IP6 pf-in-xbc.1e100.net.5228 > 2601:602:8700:26a1:8095:f581:9c73:5c53.63398: Flags [.], ack 1, win 364, options [nop,nop,TS val 2902548018 ecr 462748424], length 0
	0x0000:  98fe 9447 ba30 7654 7d81 1481 86dd 6200
	0x0010:  0000 0020 0635 2607 f8b0 400e 0c00 0000
	0x0020:  0000 0000 00bc 2601 0602 8700 26a1 8095
	0x0030:  f581 9c73 5c53 146c f7a6 2a4c bc2c 2eaa
	0x0040:  69bb 8010 016c 148a 0000 0101 080a ad01
	0x0050:  5e32 1b94 fb08
16:50:29.768230 IP 10.0.0.34.63928 > 104.16.36.249.http: Flags [F.], seq 149748969, ack 3991131421, win 8192, length 0
	0x0000:  7654 7d81 1481 98fe 9447 ba30 0800 4500
	0x0010:  0028 50b6 4000 4006 52ef 0a00 0022 6810
	0x0020:  24f9 f9b8 0050 08ec fce9 ede3 d51d 5011
	0x0030:  2000 35c8 0000
16:50:29.982728 IP6 2601:602:8700:26a1:8095:f581:9c73:5c53.61103 > sea09s17-in-x16.1e100.net.https: UDP, length 24
	0x0000:  7654 7d81 1481 98fe 9447 ba30 86dd 600f
	0x0010:  8658 0020 1140 2601 0602 8700 26a1 8095
	0x0020:  f581 9c73 5c53 2607 f8b0 400a 0804 0000
	0x0030:  0000 0000 1016 eeaf 01bb 0020 de9c 0c32
	0x0040:  ebcc eb9c dcaf 4246 4f68 a78d 54af 8fff
	0x0050:  9c5f 98b0 5e00
16:50:30.026625 IP 10.0.0.34.50934 > cdns01.comcast.net.domain: 38969+ PTR? 34.0.0.10.in-addr.arpa. (40)
	0x0000:  7654 7d81 1481 98fe 9447 ba30 0800 4500
	0x0010:  0044 4767 0000 ff11 d389 0a00 0022 4b4b
	0x0020:  4b4b c6f6 0035 0030 23bc 9839 0100 0001
	0x0030:  0000 0000 0000 0233 3401 3001 3002 3130
	0x0040:  0769 6e2d 6164 6472 0461 7270 6100 000c
	0x0050:  0001
16:50:30.029468 IP6 sea09s17-in-x16.1e100.net.https > 2601:602:8700:26a1:8095:f581:9c73:5c53.61103: UDP, length 33
	0x0000:  98fe 9447 ba30 7654 7d81 1481 86dd 6200
	0x0010:  0000 0029 1137 2607 f8b0 400a 0804 0000
	0x0020:  0000 0000 1016 2601 0602 8700 26a1 8095
	0x0030:  f581 9c73 5c53 01bb eeaf 0029 8347 0088
	0x0040:  6a74 e34a 6495 edf3 e06b 2f98 717f 8e2a
	0x0050:  0194 cdb2 e831 0002 7756 2be2 4f58 72
16:50:30.046174 IP cdns01.comcast.net.domain > 10.0.0.34.50934: 38969 NXDomain 0/0/0 (40)
	0x0000:  98fe 9447 ba30 7654 7d81 1481 0800 4500
	0x0010:  0044 0000 4000 3b11 9ef1 4b4b 4b4b 0a00
	0x0020:  0022 0035 c6f6 0030 a338 9839 8183 0001
	0x0030:  0000 0000 0000 0233 3401 3001 3002 3130
	0x0040:  0769 6e2d 6164 6472 0461 7270 6100 000c
	0x0050:  0001
16:50:30.047185 IP 10.0.0.34.57828 > cdns01.comcast.net.domain: 257+ PTR? 249.36.16.104.in-addr.arpa. (44)
	0x0000:  7654 7d81 1481 98fe 9447 ba30 0800 4500
	0x0010:  0048 4a9d 0000 ff11 d04f 0a00 0022 4b4b
	0x0020:  4b4b e1e4 0035 0034 932a 0101 0100 0001
	0x0030:  0000 0000 0000 0332 3439 0233 3602 3136
	0x0040:  0331 3034 0769 6e2d 6164 6472 0461 7270
	0x0050:  6100 000c 0001
16:50:30.065743 IP cdns01.comcast.net.domain > 10.0.0.34.57828: 257 NXDomain 0/1/0 (102)
	0x0000:  98fe 9447 ba30 7654 7d81 1481 0800 4500
	0x0010:  0082 0000 4000 3b11 9eb3 4b4b 4b4b 0a00
	0x0020:  0022 0035 e1e4 006e 5cc5 0101 8183 0001
	0x0030:  0000 0001 0000 0332 3439 0233 3602 3136
	0x0040:  0331 3034 0769 6e2d 6164 6472 0461 7270
	0x0050:  6100 000c 0001 c01a 0006 0001 0000 0cf8
	0x0060:  002e 036e 7331 0a63 6c6f 7564 666c 6172
	0x0070:  6503 636f 6d00 0364 6e73 c03c 41ef 9aef
	0x0080:  0000 2710 0000 0960 0009 3a80 0000 0e10
16:50:30.093712 IP6 pe-in-xbd.1e100.net.https > 2601:602:8700:26a1:8095:f581:9c73:5c53.63611: UDP, length 41
	0x0000:  98fe 9447 ba30 7654 7d81 1481 86dd 6200
	0x0010:  0000 0031 1135 2001 4860 400b 0c01 0000
	0x0020:  0000 0000 00bd 2601 0602 8700 26a1 8095
	0x0030:  f581 9c73 5c53 01bb f87b 0031 b5d6 0005
	0x0040:  f852 8411 ed82 e564 944d dd89 fa4d b219
	0x0050:  0048 6a2d 55f3 6abd 7627 a6ab e31c f1b8
	0x0060:  507f 4ec8 c729 61
16:50:30.096931 IP6 pe-in-xbd.1e100.net.https > 2601:602:8700:26a1:8095:f581:9c73:5c53.63611: UDP, length 19
	0x0000:  98fe 9447 ba30 7654 7d81 1481 86dd 6200
	0x0010:  0000 001b 1135 2001 4860 400b 0c01 0000
	0x0020:  0000 0000 00bd 2601 0602 8700 26a1 8095
	0x0030:  f581 9c73 5c53 01bb f87b 001b a05f 0006
	0x0040:  fcd5 be63 4fe6 1aae a834 ae3e cacd ed5e
	0x0050:  33
16:50:30.097068 IP6 2601:602:8700:26a1:8095:f581:9c73:5c53.63611 > pe-in-xbd.1e100.net.https: UDP, length 47
	0x0000:  7654 7d81 1481 98fe 9447 ba30 86dd 600e
	0x0010:  7879 0037 1140 2601 0602 8700 26a1 8095
	0x0020:  f581 9c73 5c53 2001 4860 400b 0c01 0000
	0x0030:  0000 0000 00bd f87b 01bb 0037 571b 0cc6
	0x0040:  3ce5 eba2 a310 eadc d1b1 7a0f fe6a 6ae5
	0x0050:  cc7a bd0f f4d7 048e f59f 082c f638 04ed
	0x0060:  195c e7c7 3ee8 2263 9f6a 8476 36
16:50:30.104076 IP6 2601:602:8700:26a1:8095:f581:9c73:5c53.63611 > pe-in-xbd.1e100.net.https: UDP, length 239
	0x0000:  7654 7d81 1481 98fe 9447 ba30 86dd 600e
	0x0010:  7879 00f7 1140 2601 0602 8700 26a1 8095
	0x0020:  f581 9c73 5c53 2001 4860 400b 0c01 0000
	0x0030:  0000 0000 00bd f87b 01bb 00f7 132b 0cc6
	0x0040:  3ce5 eba2 a310 eadd b75e 7e87 d6f6 d040
	0x0050:  9b7b 0019 128f 13a7 3a2a 3b88 95d4 96db
	0x0060:  d99b 8fb9 69b2 d2a0 f024 a5dd b9f1 84e0
	0x0070:  873a 7d06 7a91 8728 f242 82d9 c7de 5126
	0x0080:  6ad8 9b90 b01f 1972 6ddd f5e1 9955 b922
	0x0090:  fcea 1d27 6c12 0524 ec52 37ac e925 b6cd
	0x00a0:  bef3 8ee4 bcac ac72 e807 6544 837c b847
	0x00b0:  0b09 fb51 c2bc a81c 1f13 7097 575f e131
	0x00c0:  fbf5 15e7 eb22 eeb1 c439 f402 e930 c04e
	0x00d0:  c18e e745 d0a2 7220 b6b0 cfeb 6b8d 76f0
	0x00e0:  33f1 c485 f187 1784 9751 81ad 1274 c4a5
	0x00f0:  0089 95f8 f3e1 3d73 231f bd70 b531 1049
	0x0100:  0160 4f6c 8482 7d75 1192 e77e 2e29 f0f5
	0x0110:  9b3f e507 e9bd 70e3 a16f 4209 fc4a 45c1
	0x0120:  1da4 19e0 fb0e ac6a f771 f777 56
16:50:30.142185 IP6 pe-in-xbd.1e100.net.https > 2601:602:8700:26a1:8095:f581:9c73:5c53.63611: UDP, length 79
	0x0000:  98fe 9447 ba30 7654 7d81 1481 86dd 6200
	0x0010:  0000 0057 1135 2001 4860 400b 0c01 0000
	0x0020:  0000 0000 00bd 2601 0602 8700 26a1 8095
	0x0030:  f581 9c73 5c53 01bb f87b 0057 dd3a 0007
	0x0040:  6fd4 2a8a 1406 1983 1a67 f685 da45 4b1d
	0x0050:  432e 1f77 3356 4286 cae9 573e 26a3 d759
	0x0060:  80f5 b89f 4a39 9b01 b8a5 5462 0dbf 76bc
	0x0070:  fa2c 1d05 f608 c684 91cf ce9b 1598 2d81
	0x0080:  c5b8 2526 51b6 9709 9516 06ed 9c
16:50:30.145320 IP6 pe-in-xbd.1e100.net.https > 2601:602:8700:26a1:8095:f581:9c73:5c53.63611: UDP, length 39
	0x0000:  98fe 9447 ba30 7654 7d81 1481 86dd 6200
	0x0010:  0000 002f 1135 2001 4860 400b 0c01 0000
	0x0020:  0000 0000 00bd 2601 0602 8700 26a1 8095
	0x0030:  f581 9c73 5c53 01bb f87b 002f 2677 0008
	0x0040:  d0ce 2641 7747 3da5 1364 a3da 4207 8677
	0x0050:  ce8e dc80 2a92 2c50 e480 4b34 78d5 e9dc
	0x0060:  369c 6b7c 7f
16:50:30.146896 IP6 2601:602:8700:26a1:8095:f581:9c73:5c53.63611 > pe-in-xbd.1e100.net.https: UDP, length 41
	0x0000:  7654 7d81 1481 98fe 9447 ba30 86dd 600e
	0x0010:  7879 0031 1140 2601 0602 8700 26a1 8095
	0x0020:  f581 9c73 5c53 2001 4860 400b 0c01 0000
	0x0030:  0000 0000 00bd f87b 01bb 0031 e77b 0cc6
	0x0040:  3ce5 eba2 a310 eade 489c a7b8 11e1 2364
	0x0050:  eaf1 9c84 6f17 db58 e55f 3757 e640 b9d6
	0x0060:  5ef5 1e3f d569 56
16:50:34.826313 IP ec2-54-85-144-229.compute-1.amazonaws.com.https > 10.0.0.34.63956: Flags [P.], seq 556790369:556790758, ack 1196645187, win 75, options [nop,nop,TS val 569142630 ecr 462945623], length 389
	0x0000:  98fe 9447 ba30 7654 7d81 1481 0800 4520
	0x0010:  01b9 b795 4000 2c06 c42d 3655 90e5 0a00
	0x0020:  0022 01bb f9d4 212f f261 4753 5b43 8018
	0x0030:  004b 11a9 0000 0101 080a 21ec 6d66 1b97
	0x0040:  fd57 1703 0301 8061 44e4 9a70 4129 eb4a
	0x0050:  c902 6eab 9bf1 0642 76ef b837 ec89 fbc7
	0x0060:  5269 dcb3 f792 768d f243 b0c9 f3bc e4ae
	0x0070:  fbe0 f6b8 06a0 d48e 4af3 2da9 088f dabf
	0x0080:  2c43 6c99 daa7 724c f40c 0a8e 0c37 ecf5
	0x0090:  5e5d ec7b 8f4a f480 b894 313c 7a93 35b1
	0x00a0:  afd8 6196 aeca e4e6 62ae 0a1c 6926 4021
	0x00b0:  17eb 01df 444a ceaa b8a0 8727 6775 7fe9
	0x00c0:  6673 9199 150f b3bb b486 ceb1 970e 15cf
	0x00d0:  73a4 52c7 12c1 e0ba ea54 48c5 d255 9794
	0x00e0:  f1e0 4acc 547a faff b07e 43c1 0465 690d
	0x00f0:  1682 43f1 8750 7b90 7426 5891 3657 4197
	0x0100:  dd86 365a 957b 76b7 c34d e792 8b5b 9c9e
	0x0110:  6a65 431c e11a bf43 c8bf a182 9fe7 227e
	0x0120:  3858 be3a 10ab b467 db49 38b4 a426 8c20
	0x0130:  9d43 b8cc 6d30 dd6a 9353 5bec d035 79aa
	0x0140:  e82d ae52 2111 47d1 9200 cc76 78d0 4236
	0x0150:  1c96 fe8e a636 b06e 64b9 d18d e6a3 b19c
	0x0160:  6714 ff16 94aa c275 506e 9ac7 b884 f254
	0x0170:  09e4 2bb5 caf0 e10b 58c4 4132 78cf 4d20
	0x0180:  8ce2 686a 9c7e bf25 10c8 3ec7 689e bd89
	0x0190:  c600 e56c a5dc d3a5 1bb1 72ed ff05 88fa
	0x01a0:  164c bdfc faa2 9bc3 6a52 1673 c582 9598
	0x01b0:  007c 4ecc 14be 451c d946 da8d 8fab fec1
	0x01c0:  89a3 fb37 eb94 57
16:50:34.826354 IP 10.0.0.34.63956 > ec2-54-85-144-229.compute-1.amazonaws.com.https: Flags [.], ack 389, win 4099, options [nop,nop,TS val 462985691 ecr 569142630], length 0
	0x0000:  7654 7d81 1481 98fe 9447 ba30 0800 4500
	0x0010:  0034 83f7 4000 4006 e570 0a00 0022 3655
	0x0020:  90e5 f9d4 01bb 4753 5b43 212f f3e6 8010
	0x0030:  1003 9d5b 0000 0101 080a 1b98 99db 21ec
	0x0040:  6d66
16:50:34.827066 IP 10.0.0.34.63956 > ec2-54-85-144-229.compute-1.amazonaws.com.https: Flags [F.], seq 1, ack 389, win 4099, options [nop,nop,TS val 462985691 ecr 569142630], length 0
	0x0000:  7654 7d81 1481 98fe 9447 ba30 0800 4500
	0x0010:  0034 fa4f 4000 4006 6f18 0a00 0022 3655
	0x0020:  90e5 f9d4 01bb 4753 5b43 212f f3e6 8011
	0x0030:  1003 9d5a 0000 0101 080a 1b98 99db 21ec
	0x0040:  6d66
16:50:34.827324 IP ec2-54-85-144-229.compute-1.amazonaws.com.https > 10.0.0.34.63956: Flags [P.], seq 389:458, ack 1, win 75, options [nop,nop,TS val 569142630 ecr 462945623], length 69
	0x0000:  98fe 9447 ba30 7654 7d81 1481 0800 4520
	0x0010:  0079 b796 4000 2c06 c56c 3655 90e5 0a00
	0x0020:  0022 01bb f9d4 212f f3e6 4753 5b43 8018
	0x0030:  004b e5c5 0000 0101 080a 21ec 6d66 1b97
	0x0040:  fd57 1503 0300 409b 22dc 2382 7c3a 1382
	0x0050:  1446 b525 607d 92aa 9cfe 400b d95d 341d
	0x0060:  54f9 aa92 b271 c59b 63b7 7bd6 176e c6b4
	0x0070:  f903 0a11 d19b d39b 3414 129f b01b 9dde
	0x0080:  c8be b6fe 74b1 27
16:50:34.827345 IP 10.0.0.34.63956 > ec2-54-85-144-229.compute-1.amazonaws.com.https: Flags [R], seq 1196645187, win 0, length 0
	0x0000:  7654 7d81 1481 98fe 9447 ba30 0800 4520
	0x0010:  0028 977c 4000 4006 d1d7 0a00 0022 3655
	0x0020:  90e5 f9d4 01bb 4753 5b43 0000 0000 5004
	0x0030:  0000 405e 0000
16:50:34.828779 IP 10.0.0.34.61040 > cdns01.comcast.net.domain: 44323+ AAAA? scss-prod-ue1-notif-12.adobesc.com. (52)
	0x0000:  7654 7d81 1481 98fe 9447 ba30 0800 4500
	0x0010:  0050 df0e 0000 ff11 3bd6 0a00 0022 4b4b
	0x0020:  4b4b ee70 0035 003c 9316 ad23 0100 0001
	0x0030:  0000 0000 0000 1673 6373 732d 7072 6f64
	0x0040:  2d75 6531 2d6e 6f74 6966 2d31 3207 6164
	0x0050:  6f62 6573 6303 636f 6d00 001c 0001
16:50:34.828847 IP 10.0.0.34.59778 > cdns01.comcast.net.domain: 38374+ A? scss-prod-ue1-notif-12.adobesc.com. (52)
	0x0000:  7654 7d81 1481 98fe 9447 ba30 0800 4500
	0x0010:  0050 fe42 0000 ff11 1ca2 0a00 0022 4b4b
	0x0020:  4b4b e982 0035 003c af5c 95e6 0100 0001
	0x0030:  0000 0000 0000 1673 6373 732d 7072 6f64
	0x0040:  2d75 6531 2d6e 6f74 6966 2d31 3207 6164
	0x0050:  6f62 6573 6303 636f 6d00 0001 0001
16:50:34.847895 IP cdns01.comcast.net.domain > 10.0.0.34.59778: 38374 1/0/0 A 54.85.144.229 (68)
	0x0000:  98fe 9447 ba30 7654 7d81 1481 0800 4500
	0x0010:  0060 0000 4000 3b11 9ed5 4b4b 4b4b 0a00
	0x0020:  0022 0035 e982 004c a738 95e6 8180 0001
	0x0030:  0001 0000 0000 1673 6373 732d 7072 6f64
	0x0040:  2d75 6531 2d6e 6f74 6966 2d31 3207 6164
	0x0050:  6f62 6573 6303 636f 6d00 0001 0001 c00c
	0x0060:  0001 0001 0000 0035 0004 3655 90e5
16:50:34.848007 IP cdns01.comcast.net.domain > 10.0.0.34.61040: 44323 0/1/0 (133)
	0x0000:  98fe 9447 ba30 7654 7d81 1481 0800 4500
	0x0010:  00a1 0000 4000 3b11 9e94 4b4b 4b4b 0a00
	0x0020:  0022 0035 ee70 008d 9ad4 ad23 8180 0001
	0x0030:  0000 0001 0000 1673 6373 732d 7072 6f64
	0x0040:  2d75 6531 2d6e 6f74 6966 2d31 3207 6164
	0x0050:  6f62 6573 6303 636f 6d00 001c 0001 c023
	0x0060:  0006 0001 0000 0370 0045 066e 732d 3739
	0x0070:  3709 6177 7364 6e73 2d33 3503 6e65 7400
	0x0080:  1161 7773 646e 732d 686f 7374 6d61 7374
	0x0090:  6572 0661 6d61 7a6f 6ec0 2b00 0000 0100
	0x00a0:  001c 2000 0003 8400 1275 0000 0151 80
16:50:34.848677 IP 10.0.0.34.63959 > ec2-54-85-144-229.compute-1.amazonaws.com.https: Flags [S], seq 3382113597, win 65535, options [mss 1460,nop,wscale 5,nop,nop,TS val 462985713 ecr 0,sackOK,eol], length 0
	0x0000:  7654 7d81 1481 98fe 9447 ba30 0800 4500
	0x0010:  0040 fba4 4000 4006 6db7 0a00 0022 3655
	0x0020:  90e5 f9d7 01bb c996 f53d 0000 0000 b002
	0x0030:  ffff f5af 0000 0204 05b4 0103 0305 0101
	0x0040:  080a 1b98 99f1 0000 0000 0402 0000
16:50:34.994443 IP ec2-54-85-144-229.compute-1.amazonaws.com.https > 10.0.0.34.63956: Flags [F.], seq 458, ack 2, win 75, options [nop,nop,TS val 569142654 ecr 462985691], length 0
	0x0000:  98fe 9447 ba30 7654 7d81 1481 0800 4520
	0x0010:  0034 b797 4000 2c06 c5b0 3655 90e5 0a00
	0x0020:  0022 01bb f9d4 212f f42b 4753 5b44 8011
	0x0030:  004b acb4 0000 0101 080a 21ec 6d7e 1b98
	0x0040:  99db
16:50:34.994448 IP ec2-54-85-144-229.compute-1.amazonaws.com.https > 10.0.0.34.63959: Flags [S.], seq 65199223, ack 3382113598, win 17898, options [mss 8961,sackOK,TS val 569142660 ecr 462985713,nop,wscale 8], length 0
	0x0000:  98fe 9447 ba30 7654 7d81 1481 0800 4520
	0x0010:  003c 0000 4000 2c06 7d40 3655 90e5 0a00
	0x0020:  0022 01bb f9d7 03e2 dc77 c996 f53e a012
	0x0030:  45ea 339f 0000 0204 2301 0402 080a 21ec
	0x0040:  6d84 1b98 99f1 0103 0308
16:50:34.994480 IP 10.0.0.34.63956 > ec2-54-85-144-229.compute-1.amazonaws.com.https: Flags [R], seq 1196645188, win 0, length 0
	0x0000:  7654 7d81 1481 98fe 9447 ba30 0800 4520
	0x0010:  0028 02fa 4000 4006 665a 0a00 0022 3655
	0x0020:  90e5 f9d4 01bb 4753 5b44 0000 0000 5004
	0x0030:  0000 405d 0000
16:50:34.994553 IP 10.0.0.34.63959 > ec2-54-85-144-229.compute-1.amazonaws.com.https: Flags [.], ack 1, win 4117, options [nop,nop,TS val 462985858 ecr 569142660], length 0
	0x0000:  7654 7d81 1481 98fe 9447 ba30 0800 4500
	0x0010:  0034 b852 4000 4006 b115 0a00 0022 3655
	0x0020:  90e5 f9d7 01bb c996 f53e 03e2 dc78 8010
	0x0030:  1015 b4fd 0000 0101 080a 1b98 9a82 21ec
	0x0040:  6d84
16:50:34.995434 IP 10.0.0.34.63959 > ec2-54-85-144-229.compute-1.amazonaws.com.https: Flags [P.], seq 1:234, ack 1, win 4117, options [nop,nop,TS val 462985858 ecr 569142660], length 233
	0x0000:  7654 7d81 1481 98fe 9447 ba30 0800 4500
	0x0010:  011d a216 4000 4006 c668 0a00 0022 3655
	0x0020:  90e5 f9d7 01bb c996 f53e 03e2 dc78 8018
	0x0030:  1015 fe54 0000 0101 080a 1b98 9a82 21ec
	0x0040:  6d84 1603 0100 e401 0000 e003 0356 3fed
	0x0050:  da8d f8bb 0c7f e8af 49c9 ec75 8fa9 4f99
	0x0060:  cad1 5ac5 77ad d0da 63a5 54e8 d720 b07a
	0x0070:  2a1e 80d2 9d00 1066 32c1 d53a 9057 2b53
	0x0080:  78d5 29bd 79ee 3c04 b387 7688 9153 004a
	0x0090:  00ff c024 c023 c00a c009 c008 c028 c027
	0x00a0:  c014 c013 c012 c026 c025 c005 c004 c003
	0x00b0:  c02a c029 c00f c00e c00d 006b 0067 0039
	0x00c0:  0033 0016 003d 003c 0035 002f 000a c007
	0x00d0:  c011 c002 c00c 0005 0004 0100 004d 0000
	0x00e0:  0027 0025 0000 2273 6373 732d 7072 6f64
	0x00f0:  2d75 6531 2d6e 6f74 6966 2d31 322e 6164
	0x0100:  6f62 6573 632e 636f 6d00 0a00 0800 0600
	0x0110:  1700 1800 1900 0b00 0201 0000 0d00 0c00
	0x0120:  0a05 0104 0102 0104 0302 03
16:50:35.070399 IP 10.0.0.34.56707 > cdns01.comcast.net.domain: 55670+ PTR? 229.144.85.54.in-addr.arpa. (44)
	0x0000:  7654 7d81 1481 98fe 9447 ba30 0800 4500
	0x0010:  0048 db1c 0000 ff11 3fd0 0a00 0022 4b4b
	0x0020:  4b4b dd83 0035 0034 ba12 d976 0100 0001
	0x0030:  0000 0000 0000 0332 3239 0331 3434 0238
	0x0040:  3502 3534 0769 6e2d 6164 6472 0461 7270
	0x0050:  6100 000c 0001
16:50:35.166054 IP ec2-54-85-144-229.compute-1.amazonaws.com.https > 10.0.0.34.63959: Flags [.], ack 234, win 75, options [nop,nop,TS val 569142697 ecr 462985858], length 0
	0x0000:  98fe 9447 ba30 7654 7d81 1481 0800 4520
	0x0010:  0034 b1d0 4000 2c06 cb77 3655 90e5 0a00
	0x0020:  0022 01bb f9d7 03e2 dc78 c996 f627 8010
	0x0030:  004b c3b9 0000 0101 080a 21ec 6da9 1b98
	0x0040:  9a82
16:50:35.166058 IP ec2-54-85-144-229.compute-1.amazonaws.com.https > 10.0.0.34.63959: Flags [P.], seq 1:186, ack 234, win 75, options [nop,nop,TS val 569142698 ecr 462985858], length 185
	0x0000:  98fe 9447 ba30 7654 7d81 1481 0800 4520
	0x0010:  00ed b1d1 4000 2c06 cabd 3655 90e5 0a00
	0x0020:  0022 01bb f9d7 03e2 dc78 c996 f627 8018
	0x0030:  004b 3cec 0000 0101 080a 21ec 6daa 1b98
	0x0040:  9a82 1603 0300 5902 0000 5503 03a8 394c
	0x0050:  d4b1 7ad5 ffa7 88ed 23b0 7205 51ca 2b39
	0x0060:  ace9 9a83 4a0b 27fc 3c34 914e 7620 b07a
	0x0070:  2a1e 80d2 9d00 1066 32c1 d53a 9057 2b53
	0x0080:  78d5 29bd 79ee 3c04 b387 7688 9153 c027
	0x0090:  0000 0dff 0100 0100 000b 0004 0300 0102
	0x00a0:  1403 0300 0101 1603 0300 502c 328d 4fcf
	0x00b0:  96fa 2d86 bb73 95dc 02f5 664b 4ee3 0ce7
	0x00c0:  1112 16fb 08ed a10b 69ae 549d 840a 6424
	0x00d0:  3708 e428 ef73 284c 3ceb b814 0c18 ba73
	0x00e0:  3123 71e2 f571 3306 42cb af5b 1a8e cd24
	0x00f0:  fd99 03ba 5f4e 46c5 0e5e 45
16:50:35.166107 IP 10.0.0.34.63959 > ec2-54-85-144-229.compute-1.amazonaws.com.https: Flags [.], ack 186, win 4111, options [nop,nop,TS val 462986029 ecr 569142698], length 0
	0x0000:  7654 7d81 1481 98fe 9447 ba30 0800 4500
	0x0010:  0034 b9d4 4000 4006 af93 0a00 0022 3655
	0x0020:  90e5 f9d7 01bb c996 f627 03e2 dd31 8010
	0x0030:  100f b290 0000 0101 080a 1b98 9b2d 21ec
	0x0040:  6daa
16:50:35.166325 IP 10.0.0.34.63959 > ec2-54-85-144-229.compute-1.amazonaws.com.https: Flags [P.], seq 234:240, ack 186, win 4111, options [nop,nop,TS val 462986029 ecr 569142698], length 6
	0x0000:  7654 7d81 1481 98fe 9447 ba30 0800 4500
	0x0010:  003a 1306 4000 4006 565c 0a00 0022 3655
	0x0020:  90e5 f9d7 01bb c996 f627 03e2 dd31 8018
	0x0030:  100f 9a7e 0000 0101 080a 1b98 9b2d 21ec
	0x0040:  6daa 1403 0300 0101
16:50:35.166360 IP 10.0.0.34.63959 > ec2-54-85-144-229.compute-1.amazonaws.com.https: Flags [P.], seq 240:325, ack 186, win 4111, options [nop,nop,TS val 462986029 ecr 569142698], length 85
	0x0000:  7654 7d81 1481 98fe 9447 ba30 0800 4500
	0x0010:  0089 3ae3 4000 4006 2e30 0a00 0022 3655
	0x0020:  90e5 f9d7 01bb c996 f62d 03e2 dd31 8018
	0x0030:  100f d892 0000 0101 080a 1b98 9b2d 21ec
	0x0040:  6daa 1603 0300 5048 5763 5853 7d9c aae8
	0x0050:  9788 b2ce d3bf 2ce3 777a 621d 1da4 7fff
	0x0060:  316f 8364 ad39 d080 ff9b 14e5 4bbe 9c25
	0x0070:  d22d a330 3b85 4a2b a94b 5bf6 0108 46c1
	0x0080:  8735 2406 233e 14cc 3d9b f2cf c441 ec3f
	0x0090:  7ab6 d89b 2b4b 1c
16:50:35.166549 IP 10.0.0.34.63959 > ec2-54-85-144-229.compute-1.amazonaws.com.https: Flags [.], seq 325:1773, ack 186, win 4111, options [nop,nop,TS val 462986029 ecr 569142698], length 1448
	0x0000:  7654 7d81 1481 98fe 9447 ba30 0800 4500
	0x0010:  05dc 5692 4000 4006 0d2e 0a00 0022 3655
	0x0020:  90e5 f9d7 01bb c996 f682 03e2 dd31 8010
	0x0030:  100f 7a6a 0000 0101 080a 1b98 9b2d 21ec
	0x0040:  6daa 1703 0306 2086 3bc1 9816 ca5c e8d1
	0x0050:  632e cf57 24f4 f741 5299 cf6c 4e5f 382d
	0x0060:  fb47 f206 f430 4886 52cc b5c3 011a bd98
	0x0070:  fb75 0983 d949 13cb 3c1f afc1 7708 d9b9
	0x0080:  05dd fe9a 4548 b167 b743 8a7d feff b78b
	0x0090:  8997 fb45 5159 83b5 f9bd dafb 04c3 9657
	0x00a0:  4fb5 904a 7382 3326 967f 1e47 9efc 9a6e
	0x00b0:  de19 893b 4f72 969b f352 9200 e603 474f
	0x00c0:  d21d 708d ff0a 6e3d 3274 b360 f5b2 680b
	0x00d0:  c696 1d0b a447 2e02 512c d515 93bb ed4d
	0x00e0:  979e 3dca 1a7b 3eca 96ee 795d 7607 a2bb
	0x00f0:  fd85 0b57 60f3 0ead 8c4f fa61 30a3 c17d
	0x0100:  c3b3 0727 c373 4536 bc39 9c0f e869 5f77
	0x0110:  a329 ea09 5db1 54a8 02ca 2a0d ee0d ce0d
	0x0120:  aaad 26bd a8ea 4e1e c5bd 9a06 a68c 8719
	0x0130:  c106 0d67 80df 3160 ac26 d672 bdfb fc41
	0x0140:  0ba4 d7e9 2bf8 eff3 f228 75a0 b5c0 5820
	0x0150:  ea02 4df1 0e2f 7ea3 7072 2584 0e62 4b37
	0x0160:  830d 7c5b 0135 fe94 e0f1 397b 42ae 6054
	0x0170:  e36d 9405 076c c309 26ff 714e 2b5c 5f7f
	0x0180:  e6fc 010b 575f 72ff 469f 661e 53c1 5f54
	0x0190:  e113 5e59 7f00 60d3 17b8 cbf6 1684 822a
	0x01a0:  0415 3494 7dc5 532b 606b 976e 540d 4ac2
	0x01b0:  5bda 6878 5330 f0c3 3268 56b8 625a 7942
	0x01c0:  f3de eb96 9b12 d228 fb92 447e 395b f1cd
	0x01d0:  27cc 259a 8639 8166 3fb2 661f be4c ffc4
	0x01e0:  9894 535e 8da8 9a0d 0cad e25f 1e12 eec7
	0x01f0:  41a2 dbd9 8da9 d4de 0b00 6ded 4137 8800
	0x0200:  5f97 81c1 b640 d864 90ff 35db 8801 11af
	0x0210:  a634 9faf 6581 17b6 e28b 1885 6127 8666
	0x0220:  b690 cef5 bdcf 49d2 0c7e 9b3c 577d 0f0d
	0x0230:  802e 8a8c ea5f 9cfc 00bc 37da a7a4 490c
	0x0240:  a6f0 00e9 0f60 14f1 02b5 bda7 b677 ff8f
	0x0250:  4bf8 4e81 ff3f 0c8d f3a1 fc75 c425 0127
	0x0260:  cb34 721f f634 a02a f70a 26d8 a130 6b9b
	0x0270:  ee0c c2e1 5313 59b2 3ce4 8ce8 e589 edae
	0x0280:  dc8f efc9 bd63 66aa 2d9f 4b90 2129 a147
	0x0290:  9d34 5497 5480 218c 2fea c59d bb8d 7186
	0x02a0:  2221 7732 8cd3 8797 b47e 0e42 28f7 7ef0
	0x02b0:  ffd8 9293 e9cb 6c3f 85a1 a923 5a36 d5ac
	0x02c0:  ea7f 907a a4e0 272a 252a f826 59ec d3a9
	0x02d0:  7258 a6bd 14b0 9645 d17c 354e a7ba 3082
	0x02e0:  34b7 3527 ff59 c6bd 48e7 a6c4 a85f 26e5
	0x02f0:  d7b5 c5d6 309e dacc eaf8 23fc 4837 dc6a
	0x0300:  15c0 b7e5 bc69 686f fea1 3939 6a6b e77d
	0x0310:  8fab 9d59 9c3a f54c d629 5057 13d1 b0de
	0x0320:  d2ab 751a 9dd1 a885 b4d3 6ad9 0989 6578
	0x0330:  3cf3 cec5 3453 29d9 4dd0 8852 a111 83d3
	0x0340:  9644 e94f 4995 f891 e9e7 b9fd d2b6 cfe2
	0x0350:  5e14 5730 dc06 de64 0177 d511 1701 8c63
	0x0360:  2598 a5ed 5002 c947 b3a3 4992 8209 2eaf
	0x0370:  0e22 9196 24da 8297 49d6 f4ae 7664 4328
	0x0380:  0a04 b4d6 6b76 7e2b 49cd 4714 a8d1 6aed
	0x0390:  741b 1fba 84f1 f3a4 08f5 7c2d eb85 5315
	0x03a0:  035c 55f2 207f 58e7 adb0 72fc b263 88ca
	0x03b0:  be1a 208e e076 8e3d 6a6c e07e 3a14 28b3
	0x03c0:  c781 b1c5 3848 66ff a01d 5abc 7ff7 8873
	0x03d0:  20b3 e32c 2db9 2e0b 3ae5 26ea 4f15 2e6d
	0x03e0:  671f 4ecd 4ce0 d1a6 8956 5043 262c 76e6
	0x03f0:  e478 5cd1 87cf 321a 5def 7cc7 fe6c 6c30
	0x0400:  0fba a39d 1930 bdeb 16a9 261f f9b3 a9db
	0x0410:  02b9 aabf a1a1 4007 2df6 3d10 205c 5e47
	0x0420:  ed4a 8ab1 4bd0 02b0 ed1d 78ba a96d 6654
	0x0430:  f833 b1ca 7117 97cb bf9e f625 b769 9cdd
	0x0440:  35db b136 4554 002f 4687 70a2 13eb 5af2
	0x0450:  9d83 d6c2 aecb 4c7d 6ac9 9c67 ecd5 d9c3
	0x0460:  135c aeec 4d80 97b8 2f9b 2e7f 434a 038a
	0x0470:  853c 992d bf16 b3e8 d32a b2fd 7e63 d43a
	0x0480:  4e71 8253 04ee 29d5 2ce8 3ad1 be84 643f
	0x0490:  f31a 89a6 7854 50af 1b41 dd4d b250 4440
	0x04a0:  cd59 371c 3d35 d2c2 5a46 8bbf 6ef4 c794
	0x04b0:  4a16 d1ef 0721 0884 f5f0 df45 b68e 109d
	0x04c0:  1c88 a454 ea36 92d4 d683 cc1f 391c fa15
	0x04d0:  cdc2 d739 04d9 e01a e7ad a59a d59b fbb1
	0x04e0:  035f e3de 702d fa9c 2714 4524 fcbe e896
	0x04f0:  7e01 21f4 d624 9651 a480 0d03 60d3 cd6c
	0x0500:  c925 780a 60da cd35 4d1b e853 64a0 64d9
	0x0510:  6a04 3b94 6648 a65b a17d 83ef bbb1 2f96
	0x0520:  7de9 de3d c34c 23b3 3d2a c08e a616 0d71
	0x0530:  e84c c27e 7388 e216 0c54 34f6 00c1 2152
	0x0540:  0b02 d56f 76a9 3ef1 d07a 6ca5 a1b9 06fe
	0x0550:  df7f 1a6c f5a6 4c44 3d9d 69f1 c485 d0c5
	0x0560:  c32c 64dc 098e 348c cdc2 69c0 e9ff 6fc1
	0x0570:  7d85 35c0 a5c2 dd54 7683 7147 cea7 90dc
	0x0580:  0cab 087c f3ce c333 87bc d482 68e5 2b22
	0x0590:  49a8 a534 cb66 c2e3 5184 9c71 fce1 e6f9
	0x05a0:  9dba eb4d 7d07 babb 4888 c365 dfad 732d
	0x05b0:  ab09 0352 547e 94ff 5fe2 8595 8274 e82a
	0x05c0:  67d5 2535 4d8f 86ca 94ca eed7 3f18 ea45
	0x05d0:  02dd 0c37 f1d3 c529 56eb efba 9b3d 4a9d
	0x05e0:  3ad6 228c d54a 855e 5b02
16:50:35.166552 IP 10.0.0.34.63959 > ec2-54-85-144-229.compute-1.amazonaws.com.https: Flags [P.], seq 1773:1898, ack 186, win 4111, options [nop,nop,TS val 462986029 ecr 569142698], length 125
	0x0000:  7654 7d81 1481 98fe 9447 ba30 0800 4500
	0x0010:  00b1 76f4 4000 4006 f1f6 0a00 0022 3655
	0x0020:  90e5 f9d7 01bb c996 fc2a 03e2 dd31 8018
	0x0030:  100f 541f 0000 0101 080a 1b98 9b2d 21ec
	0x0040:  6daa 8d32 da68 178a 84a3 cf12 b402 b5e3
	0x0050:  1d89 1be1 392e 80b2 5711 c074 e75c f732
	0x0060:  47ca bfd3 126b 13b2 33ea acec 8745 1543
	0x0070:  d7a7 3790 22aa 0d42 65bb 4bb9 7eb1 f754
	0x0080:  b9ce 4d6f 6104 b82c 1f56 4b1f 6f3a 6970
	0x0090:  ef3a 32d6 7456 3cad 6d06 04da ab02 89a6
	0x00a0:  fcc5 6844 79bd 229c 8d9d 8934 9284 ac11
	0x00b0:  5e8a bf6c fd78 b69b 1d44 74c8 d3f8 b4
16:50:35.183177 IP cdns01.comcast.net.domain > 10.0.0.34.56707: 55670 1/0/0 PTR ec2-54-85-144-229.compute-1.amazonaws.com. (99)
	0x0000:  98fe 9447 ba30 7654 7d81 1481 0800 4500
	0x0010:  007f 0000 4000 3b11 9eb6 4b4b 4b4b 0a00
	0x0020:  0022 0035 dd83 006b d3fe d976 8180 0001
	0x0030:  0001 0000 0000 0332 3239 0331 3434 0238
	0x0040:  3502 3534 0769 6e2d 6164 6472 0461 7270
	0x0050:  6100 000c 0001 c00c 000c 0001 0000 012c
	0x0060:  002b 1165 6332 2d35 342d 3835 2d31 3434
	0x0070:  2d32 3239 0963 6f6d 7075 7465 2d31 0961
	0x0080:  6d61 7a6f 6e61 7773 0363 6f6d 00
16:50:35.261746 IP ec2-54-85-144-229.compute-1.amazonaws.com.https > 10.0.0.34.63959: Flags [.], ack 234, win 75, options [nop,nop,TS val 569142739 ecr 462986029,nop,nop,sack 1 {240:325}], length 0
	0x0000:  98fe 9447 ba30 7654 7d81 1481 0800 4520
	0x0010:  0040 b1d2 4000 2c06 cb69 3655 90e5 0a00
	0x0020:  0022 01bb f9d7 03e2 dd31 c996 f627 b010
	0x0030:  004b 0c36 0000 0101 080a 21ec 6dd3 1b98
	0x0040:  9b2d 0101 050a c996 f62d c996 f682
16:50:35.261750 IP ec2-54-85-144-229.compute-1.amazonaws.com.https > 10.0.0.34.63959: Flags [.], ack 234, win 75, options [nop,nop,TS val 569142739 ecr 462986029,nop,nop,sack 1 {240:1773}], length 0
	0x0000:  98fe 9447 ba30 7654 7d81 1481 0800 4520
	0x0010:  0040 b1d3 4000 2c06 cb68 3655 90e5 0a00
	0x0020:  0022 01bb f9d7 03e2 dd31 c996 f627 b010
	0x0030:  004b 068e 0000 0101 080a 21ec 6dd3 1b98
	0x0040:  9b2d 0101 050a c996 f62d c996 fc2a
16:50:35.261752 IP ec2-54-85-144-229.compute-1.amazonaws.com.https > 10.0.0.34.63959: Flags [.], ack 234, win 75, options [nop,nop,TS val 569142739 ecr 462986029,nop,nop,sack 1 {240:1898}], length 0
	0x0000:  98fe 9447 ba30 7654 7d81 1481 0800 4520
	0x0010:  0040 b1d4 4000 2c06 cb67 3655 90e5 0a00
	0x0020:  0022 01bb f9d7 03e2 dd31 c996 f627 b010
	0x0030:  004b 0611 0000 0101 080a 21ec 6dd3 1b98
	0x0040:  9b2d 0101 050a c996 f62d c996 fca7
16:50:35.261754 IP ec2-54-85-144-229.compute-1.amazonaws.com.https > 10.0.0.34.63959: Flags [.], ack 1898, win 75, options [nop,nop,TS val 569142739 ecr 462986029], length 0
	0x0000:  98fe 9447 ba30 7654 7d81 1481 0800 4520
	0x0010:  0034 b1d5 4000 2c06 cb72 3655 90e5 0a00
	0x0020:  0022 01bb f9d7 03e2 dd31 c996 fca7 8010
	0x0030:  004b bbab 0000 0101 080a 21ec 6dd3 1b98
	0x0040:  9b2d
16:50:35.261824 IP 10.0.0.34.63959 > ec2-54-85-144-229.compute-1.amazonaws.com.https: Flags [.], seq 234:240, ack 186, win 4111, options [nop,nop,TS val 462986124 ecr 569142739], length 6
	0x0000:  7654 7d81 1481 98fe 9447 ba30 0800 4500
	0x0010:  003a 608d 4000 4006 08d5 0a00 0022 3655
	0x0020:  90e5 f9d7 01bb c996 f627 03e2 dd31 8010
	0x0030:  100f 99fe 0000 0101 080a 1b98 9b8c 21ec
	0x0040:  6dd3 1403 0300 0101
16:50:35.353269 IP ec2-54-85-144-229.compute-1.amazonaws.com.https > 10.0.0.34.63959: Flags [.], ack 1898, win 75, options [nop,nop,TS val 569142762 ecr 462986029,nop,nop,sack 1 {234:240}], length 0
	0x0000:  98fe 9447 ba30 7654 7d81 1481 0800 4520
	0x0010:  0040 b1d6 4000 2c06 cb65 3655 90e5 0a00
	0x0020:  0022 01bb f9d7 03e2 dd31 c996 fca7 b010
	0x0030:  004b 05fa 0000 0101 080a 21ec 6dea 1b98
	0x0040:  9b2d 0101 050a c996 f627 c996 f62d
16:50:41.269820 IP6 sea09s17-in-x16.1e100.net.https > 2601:602:8700:26a1:8095:f581:9c73:5c53.61103: UDP, length 40
	0x0000:  98fe 9447 ba30 7654 7d81 1481 86dd 6200
	0x0010:  0000 0030 1137 2607 f8b0 400a 0804 0000
	0x0020:  0000 0000 1016 2601 0602 8700 26a1 8095
	0x0030:  f581 9c73 5c53 01bb eeaf 0030 d7ed 008a
	0x0040:  b9e6 ad74 cf41 5acd 7752 17c6 010a 9e74
	0x0050:  0d53 6b7a 4db3 4f50 13b5 53aa cdd3 7ed9
	0x0060:  74c4 a14e d759
16:50:41.269826 IP6 sea09s17-in-x16.1e100.net.https > 2601:602:8700:26a1:8095:f581:9c73:5c53.61103: UDP, length 40
	0x0000:  98fe 9447 ba30 7654 7d81 1481 86dd 6200
	0x0010:  0000 0030 1137 2607 f8b0 400a 0804 0000
	0x0020:  0000 0000 1016 2601 0602 8700 26a1 8095
	0x0030:  f581 9c73 5c53 01bb eeaf 0030 85b5 008b
	0x0040:  2429 d093 c1b0 ae8d 1f9e 489d 4158 f53a
	0x0050:  c901 b0ad 1b00 a794 f3e1 6e16 22ba 6b75
	0x0060:  1445 005a 84ae
16:50:41.269829 IP6 sea09s17-in-x16.1e100.net.https > 2601:602:8700:26a1:8095:f581:9c73:5c53.61103: UDP, length 40
	0x0000:  98fe 9447 ba30 7654 7d81 1481 86dd 6200
	0x0010:  0000 0030 1137 2607 f8b0 400a 0804 0000
	0x0020:  0000 0000 1016 2601 0602 8700 26a1 8095
	0x0030:  f581 9c73 5c53 01bb eeaf 0030 9873 008c
	0x0040:  7cd3 360c 6d25 5dfc f85f 294f 1be7 90b1
	0x0050:  5f06 71af 1a91 4931 a8ed f9c2 8b3a c342
	0x0060:  0a35 657e d521
16:50:41.270137 IP6 2601:602:8700:26a1:8095:f581:9c73:5c53.61103 > sea09s17-in-x16.1e100.net.https: UDP, length 45
	0x0000:  7654 7d81 1481 98fe 9447 ba30 86dd 600f
	0x0010:  8658 0035 1140 2601 0602 8700 26a1 8095
	0x0020:  f581 9c73 5c53 2607 f8b0 400a 0804 0000
	0x0030:  0000 0000 1016 eeaf 01bb 0035 0747 0c32
	0x0040:  ebcc eb9c dcaf 4247 7f48 9dc4 ce6f 2b28
	0x0050:  d295 ce44 4f68 b610 c3eb 13c3 9c90 1315
	0x0060:  0493 1a11 c7c2 3fa3 2788 b4
16:50:41.270279 IP6 2601:602:8700:26a1:8095:f581:9c73:5c53.61103 > sea09s17-in-x16.1e100.net.https: UDP, length 42
	0x0000:  7654 7d81 1481 98fe 9447 ba30 86dd 600f
	0x0010:  8658 0032 1140 2601 0602 8700 26a1 8095
	0x0020:  f581 9c73 5c53 2607 f8b0 400a 0804 0000
	0x0030:  0000 0000 1016 eeaf 01bb 0032 fb20 0c32
	0x0040:  ebcc eb9c dcaf 4248 9a0f 788d 2520 9277
	0x0050:  eb12 a346 46c5 334e 2e02 bd45 e8aa 3a6f
	0x0060:  9dd3 9367 85d8 b9f3
16:50:41.270398 IP6 2601:602:8700:26a1:8095:f581:9c73:5c53.61103 > sea09s17-in-x16.1e100.net.https: UDP, length 42
	0x0000:  7654 7d81 1481 98fe 9447 ba30 86dd 600f
	0x0010:  8658 0032 1140 2601 0602 8700 26a1 8095
	0x0020:  f581 9c73 5c53 2607 f8b0 400a 0804 0000
	0x0030:  0000 0000 1016 eeaf 01bb 0032 a108 0c32
	0x0040:  ebcc eb9c dcaf 4249 b689 f2a5 d2bb 7301
	0x0050:  7065 6b0e 044f ec65 8212 dab3 bb86 9776
	0x0060:  51f3 3e83 1391 9d41
16:50:45.293563 IP6 2601:602:8700:26a1:8095:f581:9c73:5c53.63611 > pe-in-xbd.1e100.net.https: UDP, length 24
	0x0000:  7654 7d81 1481 98fe 9447 ba30 86dd 600e
	0x0010:  7879 0020 1140 2601 0602 8700 26a1 8095
	0x0020:  f581 9c73 5c53 2001 4860 400b 0c01 0000
	0x0030:  0000 0000 00bd f87b 01bb 0020 e9a5 0cc6
	0x0040:  3ce5 eba2 a310 eadf 23c0 031d 2611 4981
	0x0050:  96e5 bcd6 70b9
16:50:45.536946 IP6 2601:602:8700:26a1:8095:f581:9c73:5c53.63951 > den03s10-in-x0e.1e100.net.https: Flags [.], ack 4213403059, win 4096, length 0
	0x0000:  7654 7d81 1481 98fe 9447 ba30 86dd 6001
	0x0010:  e6a2 0014 0640 2601 0602 8700 26a1 8095
	0x0020:  f581 9c73 5c53 2607 f8b0 400f 0803 0000
	0x0030:  0000 0000 200e f9cf 01bb 5d4f 9ebd fb23
	0x0040:  6db3 5010 1000 700a 0000
16:50:45.537009 IP6 2601:602:8700:26a1:8095:f581:9c73:5c53.63836 > sea15s02-in-x0e.1e100.net.https: Flags [.], ack 733875190, win 4096, length 0
	0x0000:  7654 7d81 1481 98fe 9447 ba30 86dd 6002
	0x0010:  73eb 0014 0640 2601 0602 8700 26a1 8095
	0x0020:  f581 9c73 5c53 2607 f8b0 400a 0807 0000
	0x0030:  0000 0000 200e f95c 01bb 6c92 60f3 2bbe
	0x0040:  0bf6 5010 1000 d028 0000
16:50:45.924033 IP6 2601:602:8700:26a1:8095:f581:9c73:5c53.63611 > pe-in-xbd.1e100.net.https: UDP, length 24
	0x0000:  7654 7d81 1481 98fe 9447 ba30 86dd 600e
	0x0010:  7879 0020 1140 2601 0602 8700 26a1 8095
	0x0020:  f581 9c73 5c53 2001 4860 400b 0c01 0000
	0x0030:  0000 0000 00bd f87b 01bb 0020 30e2 0cc6
	0x0040:  3ce5 eba2 a310 eae0 630a 71b2 ea5e 3fa4
	0x0050:  b787 6265 fafa
16:50:45.926563 IP6 pe-in-xbd.1e100.net.https > 2601:602:8700:26a1:8095:f581:9c73:5c53.63611: UDP, length 32
	0x0000:  98fe 9447 ba30 7654 7d81 1481 86dd 6200
	0x0010:  0000 0028 1135 2001 4860 400b 0c01 0000
	0x0020:  0000 0000 00bd 2601 0602 8700 26a1 8095
	0x0030:  f581 9c73 5c53 01bb f87b 0028 3352 0009
	0x0040:  8230 c6c9 0e71 9688 c6ee 46b7 7c64 489e
	0x0050:  c19a 4a4c 590e 9f31 4c40 bbfe 075c
16:50:45.926569 IP6 sea15s02-in-x0e.1e100.net.https > 2601:602:8700:26a1:8095:f581:9c73:5c53.63836: Flags [.], ack 1, win 371, options [nop,nop,TS val 937625464 ecr 462859233], length 0
	0x0000:  98fe 9447 ba30 7654 7d81 1481 86dd 6200
	0x0010:  0000 0020 0637 2607 f8b0 400a 0807 0000
	0x0020:  0000 0000 200e 2601 0602 8700 26a1 8095
	0x0030:  f581 9c73 5c53 01bb f95c 2bbe 0bf6 6c92
	0x0040:  60f4 8010 0173 9eca 0000 0101 080a 37e3
	0x0050:  0778 1b96 abe1
16:50:45.926573 IP6 den03s10-in-x0e.1e100.net.https > 2601:602:8700:26a1:8095:f581:9c73:5c53.63951: Flags [.], ack 1, win 232, options [nop,nop,TS val 689552954 ecr 462859270], length 0
	0x0000:  98fe 9447 ba30 7654 7d81 1481 86dd 6200
	0x0010:  0000 0020 0636 2607 f8b0 400f 0803 0000
	0x0020:  0000 0000 200e 2601 0602 8700 26a1 8095
	0x0030:  f581 9c73 5c53 01bb f9cf fb23 6db3 5d4f
	0x0040:  9ebe 8010 00e8 9719 0000 0101 080a 2919
	0x0050:  be3a 1b96 ac06
16:50:45.980782 IP6 pe-in-xbd.1e100.net.https > 2601:602:8700:26a1:8095:f581:9c73:5c53.63611: UDP, length 29
	0x0000:  98fe 9447 ba30 7654 7d81 1481 86dd 6200
	0x0010:  0000 0025 1135 2001 4860 400b 0c01 0000
	0x0020:  0000 0000 00bd 2601 0602 8700 26a1 8095
	0x0030:  f581 9c73 5c53 01bb f87b 0025 704a 000a
	0x0040:  d9a1 1118 dc6b 39e3 7395 fc79 44b9 739d
	0x0050:  cfe0 c537 7869 d554 d724 b4
16:50:46.197438 IP 10.0.0.34.57578 > cdns01.comcast.net.domain: 8436+ PTR? e.0.0.2.0.0.0.0.0.0.0.0.0.0.0.0.7.0.8.0.a.0.0.4.0.b.8.f.7.0.6.2.ip6.arpa. (90)
	0x0000:  7654 7d81 1481 98fe 9447 ba30 0800 4500
	0x0010:  0076 7a16 0000 ff11 a0a8 0a00 0022 4b4b
	0x0020:  4b4b e0ea 0035 0062 e8e4 20f4 0100 0001
	0x0030:  0000 0000 0000 0165 0130 0130 0132 0130
	0x0040:  0130 0130 0130 0130 0130 0130 0130 0130
	0x0050:  0130 0130 0130 0137 0130 0138 0130 0161
	0x0060:  0130 0130 0134 0130 0162 0138 0166 0137
	0x0070:  0130 0136 0132 0369 7036 0461 7270 6100
	0x0080:  000c 0001
16:50:46.323621 IP6 kamilahs-macbook-air.local > fe80::7454:7dff:fe81:1481: ICMP6, neighbor solicitation, who has fe80::7454:7dff:fe81:1481, length 32
	0x0000:  7654 7d81 1481 98fe 9447 ba30 86dd 6000
	0x0010:  0000 0020 3aff fe80 0000 0000 0000 9afe
	0x0020:  94ff fe47 ba30 fe80 0000 0000 0000 7454
	0x0030:  7dff fe81 1481 8700 a185 0000 0000 fe80
	0x0040:  0000 0000 0000 7454 7dff fe81 1481 0101
	0x0050:  98fe 9447 ba30

